{
  "_format": "hh-sol-artifact-1",
  "contractName": "Dispenser",
  "sourceName": "contracts/Dispenser.sol",
  "abi": [
    {
      "inputs": [
        {
          "internalType": "uint256",
          "name": "limit",
          "type": "uint256"
        }
      ],
      "stateMutability": "nonpayable",
      "type": "constructor"
    },
    {
      "anonymous": false,
      "inputs": [
        {
          "indexed": true,
          "internalType": "address",
          "name": "_from",
          "type": "address"
        },
        {
          "indexed": false,
          "internalType": "uint256",
          "name": "_value",
          "type": "uint256"
        }
      ],
      "name": "Deposit",
      "type": "event"
    },
    {
      "anonymous": false,
      "inputs": [
        {
          "indexed": true,
          "internalType": "address",
          "name": "_to",
          "type": "address"
        },
        {
          "indexed": true,
          "internalType": "address",
          "name": "_token",
          "type": "address"
        },
        {
          "indexed": false,
          "internalType": "uint256",
          "name": "_value",
          "type": "uint256"
        }
      ],
      "name": "Withdraw",
      "type": "event"
    },
    {
      "inputs": [
        {
          "internalType": "address",
          "name": "_token",
          "type": "address"
        },
        {
          "internalType": "uint256",
          "name": "amount",
          "type": "uint256"
        }
      ],
      "name": "deposit",
      "outputs": [],
      "stateMutability": "nonpayable",
      "type": "function"
    },
    {
      "inputs": [],
      "name": "owner",
      "outputs": [
        {
          "internalType": "address",
          "name": "",
          "type": "address"
        }
      ],
      "stateMutability": "view",
      "type": "function"
    },
    {
      "inputs": [
        {
          "internalType": "uint256",
          "name": "amount",
          "type": "uint256"
        }
      ],
      "name": "setTokenLimit",
      "outputs": [],
      "stateMutability": "nonpayable",
      "type": "function"
    },
    {
      "inputs": [],
      "name": "tokenLimit",
      "outputs": [
        {
          "internalType": "uint256",
          "name": "",
          "type": "uint256"
        }
      ],
      "stateMutability": "view",
      "type": "function"
    },
    {
      "inputs": [
        {
          "internalType": "address",
          "name": "",
          "type": "address"
        }
      ],
      "name": "tokenPool",
      "outputs": [
        {
          "internalType": "uint256",
          "name": "",
          "type": "uint256"
        }
      ],
      "stateMutability": "view",
      "type": "function"
    },
    {
      "inputs": [
        {
          "internalType": "address",
          "name": "_token",
          "type": "address"
        },
        {
          "internalType": "uint256",
          "name": "amount",
          "type": "uint256"
        }
      ],
      "name": "withdraw",
      "outputs": [],
      "stateMutability": "nonpayable",
      "type": "function"
    },
    {
      "inputs": [
        {
          "internalType": "address",
          "name": "",
          "type": "address"
        }
      ],
      "name": "withdrawRecord",
      "outputs": [
        {
          "internalType": "uint256",
          "name": "",
          "type": "uint256"
        }
      ],
      "stateMutability": "view",
      "type": "function"
    }
  ],
  "bytecode": "0x608060405234801561001057600080fd5b50604051610c80380380610c80833981810160405281019061003291906100ba565b336000806101000a81548173ffffffffffffffffffffffffffffffffffffffff021916908373ffffffffffffffffffffffffffffffffffffffff16021790555080600181905550506100e7565b600080fd5b6000819050919050565b61009781610084565b81146100a257600080fd5b50565b6000815190506100b48161008e565b92915050565b6000602082840312156100d0576100cf61007f565b5b60006100de848285016100a5565b91505092915050565b610b8a806100f66000396000f3fe608060405234801561001057600080fd5b506004361061007d5760003560e01c80638238e9da1161005b5780638238e9da146100ec5780638da5cb5b1461011c578063c0e68fec1461013a578063f3fef3a3146101565761007d565b806347e7ef24146100825780634e14eb281461009e57806356c7627e146100ce575b600080fd5b61009c600480360381019061009791906106fd565b610172565b005b6100b860048036038101906100b3919061073d565b6102d9565b6040516100c59190610779565b60405180910390f35b6100d66102f1565b6040516100e39190610779565b60405180910390f35b6101066004803603810190610101919061073d565b6102f7565b6040516101139190610779565b60405180910390f35b61012461030f565b60405161013191906107a3565b60405180910390f35b610154600480360381019061014f91906107be565b610333565b005b610170600480360381019061016b91906106fd565b6103cb565b005b8173ffffffffffffffffffffffffffffffffffffffff166323b872dd3330846040518463ffffffff1660e01b81526004016101af939291906107eb565b6020604051808303816000875af11580156101ce573d6000803e3d6000fd5b505050506040513d601f19601f820116820180604052508101906101f2919061085a565b610231576040517f08c379a0000000000000000000000000000000000000000000000000000000008152600401610228906108e4565b60405180910390fd5b80600360008473ffffffffffffffffffffffffffffffffffffffff1673ffffffffffffffffffffffffffffffffffffffff16815260200190815260200160002060008282546102809190610933565b925050819055503373ffffffffffffffffffffffffffffffffffffffff167fe1fffcc4923d04b559f4d29a8bfc6cda04eb5b0d3c460751c2402c5c5cc9109c826040516102cd9190610779565b60405180910390a25050565b60026020528060005260406000206000915090505481565b60015481565b60036020528060005260406000206000915090505481565b60008054906101000a900473ffffffffffffffffffffffffffffffffffffffff1681565b60008054906101000a900473ffffffffffffffffffffffffffffffffffffffff1673ffffffffffffffffffffffffffffffffffffffff163373ffffffffffffffffffffffffffffffffffffffff16146103c1576040517f08c379a00000000000000000000000000000000000000000000000000000000081526004016103b8906109d9565b60405180910390fd5b8060018190555050565b600360008373ffffffffffffffffffffffffffffffffffffffff1673ffffffffffffffffffffffffffffffffffffffff1681526020019081526020016000205481111561044d576040517f08c379a000000000000000000000000000000000000000000000000000000000815260040161044490610a45565b60405180910390fd5b600154600260003373ffffffffffffffffffffffffffffffffffffffff1673ffffffffffffffffffffffffffffffffffffffff16815260200190815260200160002054106104d0576040517f08c379a00000000000000000000000000000000000000000000000000000000081526004016104c790610ad7565b60405180910390fd5b80600260003373ffffffffffffffffffffffffffffffffffffffff1673ffffffffffffffffffffffffffffffffffffffff168152602001908152602001600020600082825461051f9190610933565b9250508190555080600360008473ffffffffffffffffffffffffffffffffffffffff1673ffffffffffffffffffffffffffffffffffffffff16815260200190815260200160002060008282546105759190610af7565b925050819055508173ffffffffffffffffffffffffffffffffffffffff1663a9059cbb33836040518363ffffffff1660e01b81526004016105b7929190610b2b565b6020604051808303816000875af11580156105d6573d6000803e3d6000fd5b505050506040513d601f19601f820116820180604052508101906105fa919061085a565b508173ffffffffffffffffffffffffffffffffffffffff163373ffffffffffffffffffffffffffffffffffffffff167f9b1bfa7fa9ee420a16e124f794c35ac9f90472acc99140eb2f6447c714cad8eb836040516106589190610779565b60405180910390a35050565b600080fd5b600073ffffffffffffffffffffffffffffffffffffffff82169050919050565b600061069482610669565b9050919050565b6106a481610689565b81146106af57600080fd5b50565b6000813590506106c18161069b565b92915050565b6000819050919050565b6106da816106c7565b81146106e557600080fd5b50565b6000813590506106f7816106d1565b92915050565b6000806040838503121561071457610713610664565b5b6000610722858286016106b2565b9250506020610733858286016106e8565b9150509250929050565b60006020828403121561075357610752610664565b5b6000610761848285016106b2565b91505092915050565b610773816106c7565b82525050565b600060208201905061078e600083018461076a565b92915050565b61079d81610689565b82525050565b60006020820190506107b86000830184610794565b92915050565b6000602082840312156107d4576107d3610664565b5b60006107e2848285016106e8565b91505092915050565b60006060820190506108006000830186610794565b61080d6020830185610794565b61081a604083018461076a565b949350505050565b60008115159050919050565b61083781610822565b811461084257600080fd5b50565b6000815190506108548161082e565b92915050565b6000602082840312156108705761086f610664565b5b600061087e84828501610845565b91505092915050565b600082825260208201905092915050565b7f7472616e66657246726f6d206661696c65642100000000000000000000000000600082015250565b60006108ce601383610887565b91506108d982610898565b602082019050919050565b600060208201905081810360008301526108fd816108c1565b9050919050565b7f4e487b7100000000000000000000000000000000000000000000000000000000600052601160045260246000fd5b600061093e826106c7565b9150610949836106c7565b925082820190508082111561096157610960610904565b5b92915050565b7f6163636f756e7420756e617574686f72697a656420746f2073657420746f6b6560008201527f6e4c696d69740000000000000000000000000000000000000000000000000000602082015250565b60006109c3602683610887565b91506109ce82610967565b604082019050919050565b600060208201905081810360008301526109f2816109b6565b9050919050565b7f6e6f7420656e6f75676820746f6b656e7320696e20706f6f6c00000000000000600082015250565b6000610a2f601983610887565b9150610a3a826109f9565b602082019050919050565b60006020820190508181036000830152610a5e81610a22565b9050919050565b7f796f7520616c7265616479206861766520746f6b656e7320696e20796f75722060008201527f77616c6c65740000000000000000000000000000000000000000000000000000602082015250565b6000610ac1602683610887565b9150610acc82610a65565b604082019050919050565b60006020820190508181036000830152610af081610ab4565b9050919050565b6000610b02826106c7565b9150610b0d836106c7565b9250828203905081811115610b2557610b24610904565b5b92915050565b6000604082019050610b406000830185610794565b610b4d602083018461076a565b939250505056fea2646970667358221220d005744c544da6833156932fe0511f0273eba588ae9910675577b47ecfc15b2164736f6c63430008110033",
  "linkReferences": {},
  "deployedLinkReferences": {}
}