{
    "_format": "hh-sol-artifact-1",
    "contractName": "Dispenser",
    "sourceName": "contracts/Dispenser.sol",
    "abi": [
        {
            "inputs": [
                {
                    "internalType": "uint256",
                    "name": "limit",
                    "type": "uint256"
                }
            ],
            "stateMutability": "nonpayable",
            "type": "constructor"
        },
        {
            "anonymous": false,
            "inputs": [
                {
                    "indexed": true,
                    "internalType": "address",
                    "name": "_from",
                    "type": "address"
                },
                {
                    "indexed": false,
                    "internalType": "uint256",
                    "name": "_value",
                    "type": "uint256"
                }
            ],
            "name": "Deposit",
            "type": "event"
        },
        {
            "anonymous": false,
            "inputs": [
                {
                    "indexed": true,
                    "internalType": "address",
                    "name": "_to",
                    "type": "address"
                },
                {
                    "indexed": true,
                    "internalType": "address",
                    "name": "_token",
                    "type": "address"
                },
                {
                    "indexed": false,
                    "internalType": "uint256",
                    "name": "_value",
                    "type": "uint256"
                }
            ],
            "name": "Withdraw",
            "type": "event"
        },
        {
            "inputs": [
                {
                    "internalType": "address",
                    "name": "_token",
                    "type": "address"
                },
                {
                    "internalType": "uint256",
                    "name": "amount",
                    "type": "uint256"
                }
            ],
            "name": "deposit",
            "outputs": [],
            "stateMutability": "nonpayable",
            "type": "function"
        },
        {
            "inputs": [],
            "name": "owner",
            "outputs": [
                {
                    "internalType": "address",
                    "name": "",
                    "type": "address"
                }
            ],
            "stateMutability": "view",
            "type": "function"
        },
        {
            "inputs": [
                {
                    "internalType": "uint256",
                    "name": "amount",
                    "type": "uint256"
                }
            ],
            "name": "setTokenLimit",
            "outputs": [],
            "stateMutability": "nonpayable",
            "type": "function"
        },
        {
            "inputs": [],
            "name": "tokenLimit",
            "outputs": [
                {
                    "internalType": "uint256",
                    "name": "",
                    "type": "uint256"
                }
            ],
            "stateMutability": "view",
            "type": "function"
        },
        {
            "inputs": [
                {
                    "internalType": "address",
                    "name": "",
                    "type": "address"
                }
            ],
            "name": "tokenPool",
            "outputs": [
                {
                    "internalType": "uint256",
                    "name": "",
                    "type": "uint256"
                }
            ],
            "stateMutability": "view",
            "type": "function"
        },
        {
            "inputs": [
                {
                    "internalType": "address",
                    "name": "_token",
                    "type": "address"
                },
                {
                    "internalType": "uint256",
                    "name": "amount",
                    "type": "uint256"
                }
            ],
            "name": "withdraw",
            "outputs": [],
            "stateMutability": "nonpayable",
            "type": "function"
        }
    ],
    "bytecode": "0x608060405234801561001057600080fd5b50604051610c43380380610c43833981810160405281019061003291906100ba565b336000806101000a81548173ffffffffffffffffffffffffffffffffffffffff021916908373ffffffffffffffffffffffffffffffffffffffff16021790555080600181905550506100e7565b600080fd5b6000819050919050565b61009781610084565b81146100a257600080fd5b50565b6000815190506100b48161008e565b92915050565b6000602082840312156100d0576100cf61007f565b5b60006100de848285016100a5565b91505092915050565b610b4d806100f66000396000f3fe608060405234801561001057600080fd5b50600436106100625760003560e01c806347e7ef241461006757806356c7627e146100835780638238e9da146100a15780638da5cb5b146100d1578063c0e68fec146100ef578063f3fef3a31461010b575b600080fd5b610081600480360381019061007c919061067e565b610127565b005b61008b61028e565b60405161009891906106cd565b60405180910390f35b6100bb60048036038101906100b691906106e8565b610294565b6040516100c891906106cd565b60405180910390f35b6100d96102ac565b6040516100e69190610724565b60405180910390f35b6101096004803603810190610104919061073f565b6102d0565b005b6101256004803603810190610120919061067e565b610368565b005b8173ffffffffffffffffffffffffffffffffffffffff166323b872dd3330846040518463ffffffff1660e01b81526004016101649392919061076c565b6020604051808303816000875af1158015610183573d6000803e3d6000fd5b505050506040513d601f19601f820116820180604052508101906101a791906107db565b6101e6576040517f08c379a00000000000000000000000000000000000000000000000000000000081526004016101dd90610865565b60405180910390fd5b3373ffffffffffffffffffffffffffffffffffffffff167fe1fffcc4923d04b559f4d29a8bfc6cda04eb5b0d3c460751c2402c5c5cc9109c8260405161022c91906106cd565b60405180910390a280600260008473ffffffffffffffffffffffffffffffffffffffff1673ffffffffffffffffffffffffffffffffffffffff168152602001908152602001600020600082825461028391906108b4565b925050819055505050565b60015481565b60026020528060005260406000206000915090505481565b60008054906101000a900473ffffffffffffffffffffffffffffffffffffffff1681565b60008054906101000a900473ffffffffffffffffffffffffffffffffffffffff1673ffffffffffffffffffffffffffffffffffffffff163373ffffffffffffffffffffffffffffffffffffffff161461035e576040517f08c379a00000000000000000000000000000000000000000000000000000000081526004016103559061095a565b60405180910390fd5b8060018190555050565b600260008373ffffffffffffffffffffffffffffffffffffffff1673ffffffffffffffffffffffffffffffffffffffff168152602001908152602001600020548111156103ea576040517f08c379a00000000000000000000000000000000000000000000000000000000081526004016103e1906109c6565b60405180910390fd5b6001548273ffffffffffffffffffffffffffffffffffffffff166370a08231336040518263ffffffff1660e01b81526004016104269190610724565b602060405180830381865afa158015610443573d6000803e3d6000fd5b505050506040513d601f19601f8201168201806040525081019061046791906109fb565b106104a7576040517f08c379a000000000000000000000000000000000000000000000000000000000815260040161049e90610a9a565b60405180910390fd5b8173ffffffffffffffffffffffffffffffffffffffff163373ffffffffffffffffffffffffffffffffffffffff167f9b1bfa7fa9ee420a16e124f794c35ac9f90472acc99140eb2f6447c714cad8eb8360405161050491906106cd565b60405180910390a380600260008473ffffffffffffffffffffffffffffffffffffffff1673ffffffffffffffffffffffffffffffffffffffff168152602001908152602001600020600082825461055b9190610aba565b925050819055508173ffffffffffffffffffffffffffffffffffffffff1663a9059cbb33836040518363ffffffff1660e01b815260040161059d929190610aee565b6020604051808303816000875af11580156105bc573d6000803e3d6000fd5b505050506040513d601f19601f820116820180604052508101906105e091906107db565b505050565b600080fd5b600073ffffffffffffffffffffffffffffffffffffffff82169050919050565b6000610615826105ea565b9050919050565b6106258161060a565b811461063057600080fd5b50565b6000813590506106428161061c565b92915050565b6000819050919050565b61065b81610648565b811461066657600080fd5b50565b60008135905061067881610652565b92915050565b60008060408385031215610695576106946105e5565b5b60006106a385828601610633565b92505060206106b485828601610669565b9150509250929050565b6106c781610648565b82525050565b60006020820190506106e260008301846106be565b92915050565b6000602082840312156106fe576106fd6105e5565b5b600061070c84828501610633565b91505092915050565b61071e8161060a565b82525050565b60006020820190506107396000830184610715565b92915050565b600060208284031215610755576107546105e5565b5b600061076384828501610669565b91505092915050565b60006060820190506107816000830186610715565b61078e6020830185610715565b61079b60408301846106be565b949350505050565b60008115159050919050565b6107b8816107a3565b81146107c357600080fd5b50565b6000815190506107d5816107af565b92915050565b6000602082840312156107f1576107f06105e5565b5b60006107ff848285016107c6565b91505092915050565b600082825260208201905092915050565b7f7472616e66657246726f6d206661696c65642100000000000000000000000000600082015250565b600061084f601383610808565b915061085a82610819565b602082019050919050565b6000602082019050818103600083015261087e81610842565b9050919050565b7f4e487b7100000000000000000000000000000000000000000000000000000000600052601160045260246000fd5b60006108bf82610648565b91506108ca83610648565b92508282019050808211156108e2576108e1610885565b5b92915050565b7f6163636f756e7420756e617574686f72697a656420746f2073657420746f6b6560008201527f6e4c696d69740000000000000000000000000000000000000000000000000000602082015250565b6000610944602683610808565b915061094f826108e8565b604082019050919050565b6000602082019050818103600083015261097381610937565b9050919050565b7f6e6f7420656e6f75676820746f6b656e7320696e20706f6f6c00000000000000600082015250565b60006109b0601983610808565b91506109bb8261097a565b602082019050919050565b600060208201905081810360008301526109df816109a3565b9050919050565b6000815190506109f581610652565b92915050565b600060208284031215610a1157610a106105e5565b5b6000610a1f848285016109e6565b91505092915050565b7f796f7520616c7265616479206861766520746f6b656e7320696e20796f75722060008201527f77616c6c65740000000000000000000000000000000000000000000000000000602082015250565b6000610a84602683610808565b9150610a8f82610a28565b604082019050919050565b60006020820190508181036000830152610ab381610a77565b9050919050565b6000610ac582610648565b9150610ad083610648565b9250828203905081811115610ae857610ae7610885565b5b92915050565b6000604082019050610b036000830185610715565b610b1060208301846106be565b939250505056fea2646970667358221220c3ff8c5b651a38ddd840f4109d64b14413fe5a47f0570897c62e5735861f2c2464736f6c63430008110033",
    "linkReferences": {},
    "deployedLinkReferences": {}
}